{
  "address": "0xB30EEBB17D710E37933485883fd2ca7D75BCb022",
  "abi": [
    {
      "inputs": [
        {
          "internalType": "string",
          "name": "_name",
          "type": "string"
        },
        {
          "internalType": "string",
          "name": "_symbol",
          "type": "string"
        },
        {
          "internalType": "string",
          "name": "_contractURI",
          "type": "string"
        },
        {
          "internalType": "uint256",
          "name": "_supplyCap",
          "type": "uint256"
        },
        {
          "internalType": "uint256",
          "name": "_mintFee",
          "type": "uint256"
        },
        {
          "internalType": "uint256",
          "name": "_priceCellingFraction",
          "type": "uint256"
        },
        {
          "internalType": "uint96",
          "name": "_royaltyFeesInBips",
          "type": "uint96"
        },
        {
          "internalType": "address",
          "name": "_marketplace",
          "type": "address"
        },
        {
          "internalType": "address payable",
          "name": "_feeReceipient",
          "type": "address"
        }
      ],
      "stateMutability": "nonpayable",
      "type": "constructor"
    },
    {
      "anonymous": false,
      "inputs": [
        {
          "indexed": true,
          "internalType": "address",
          "name": "owner",
          "type": "address"
        },
        {
          "indexed": true,
          "internalType": "address",
          "name": "approved",
          "type": "address"
        },
        {
          "indexed": true,
          "internalType": "uint256",
          "name": "tokenId",
          "type": "uint256"
        }
      ],
      "name": "Approval",
      "type": "event"
    },
    {
      "anonymous": false,
      "inputs": [
        {
          "indexed": true,
          "internalType": "address",
          "name": "owner",
          "type": "address"
        },
        {
          "indexed": true,
          "internalType": "address",
          "name": "operator",
          "type": "address"
        },
        {
          "indexed": false,
          "internalType": "bool",
          "name": "approved",
          "type": "bool"
        }
      ],
      "name": "ApprovalForAll",
      "type": "event"
    },
    {
      "anonymous": false,
      "inputs": [
        {
          "indexed": false,
          "internalType": "uint256",
          "name": "tokenId",
          "type": "uint256"
        },
        {
          "indexed": false,
          "internalType": "address",
          "name": "beneficiary",
          "type": "address"
        },
        {
          "indexed": false,
          "internalType": "string",
          "name": "tokenUri",
          "type": "string"
        },
        {
          "indexed": false,
          "internalType": "address",
          "name": "minter",
          "type": "address"
        }
      ],
      "name": "Minted",
      "type": "event"
    },
    {
      "anonymous": false,
      "inputs": [
        {
          "indexed": true,
          "internalType": "address",
          "name": "previousOwner",
          "type": "address"
        },
        {
          "indexed": true,
          "internalType": "address",
          "name": "newOwner",
          "type": "address"
        }
      ],
      "name": "OwnershipTransferred",
      "type": "event"
    },
    {
      "anonymous": false,
      "inputs": [
        {
          "indexed": true,
          "internalType": "address",
          "name": "from",
          "type": "address"
        },
        {
          "indexed": true,
          "internalType": "address",
          "name": "to",
          "type": "address"
        },
        {
          "indexed": true,
          "internalType": "uint256",
          "name": "tokenId",
          "type": "uint256"
        }
      ],
      "name": "Transfer",
      "type": "event"
    },
    {
      "inputs": [
        {
          "internalType": "address",
          "name": "to",
          "type": "address"
        },
        {
          "internalType": "uint256",
          "name": "tokenId",
          "type": "uint256"
        }
      ],
      "name": "approve",
      "outputs": [],
      "stateMutability": "nonpayable",
      "type": "function"
    },
    {
      "inputs": [
        {
          "internalType": "address",
          "name": "owner",
          "type": "address"
        }
      ],
      "name": "balanceOf",
      "outputs": [
        {
          "internalType": "uint256",
          "name": "",
          "type": "uint256"
        }
      ],
      "stateMutability": "view",
      "type": "function"
    },
    {
      "inputs": [],
      "name": "contractURI",
      "outputs": [
        {
          "internalType": "string",
          "name": "",
          "type": "string"
        }
      ],
      "stateMutability": "view",
      "type": "function"
    },
    {
      "inputs": [],
      "name": "feeReceipient",
      "outputs": [
        {
          "internalType": "address payable",
          "name": "",
          "type": "address"
        }
      ],
      "stateMutability": "view",
      "type": "function"
    },
    {
      "inputs": [
        {
          "internalType": "uint256",
          "name": "tokenId",
          "type": "uint256"
        }
      ],
      "name": "getApproved",
      "outputs": [
        {
          "internalType": "address",
          "name": "",
          "type": "address"
        }
      ],
      "stateMutability": "view",
      "type": "function"
    },
    {
      "inputs": [],
      "name": "getPriceCelling",
      "outputs": [
        {
          "internalType": "uint256",
          "name": "",
          "type": "uint256"
        }
      ],
      "stateMutability": "view",
      "type": "function"
    },
    {
      "inputs": [
        {
          "internalType": "address",
          "name": "owner",
          "type": "address"
        },
        {
          "internalType": "address",
          "name": "operator",
          "type": "address"
        }
      ],
      "name": "isApprovedForAll",
      "outputs": [
        {
          "internalType": "bool",
          "name": "",
          "type": "bool"
        }
      ],
      "stateMutability": "view",
      "type": "function"
    },
    {
      "inputs": [
        {
          "internalType": "address",
          "name": "_to",
          "type": "address"
        }
      ],
      "name": "mint",
      "outputs": [],
      "stateMutability": "payable",
      "type": "function"
    },
    {
      "inputs": [],
      "name": "mintFee",
      "outputs": [
        {
          "internalType": "uint256",
          "name": "",
          "type": "uint256"
        }
      ],
      "stateMutability": "view",
      "type": "function"
    },
    {
      "inputs": [],
      "name": "name",
      "outputs": [
        {
          "internalType": "string",
          "name": "",
          "type": "string"
        }
      ],
      "stateMutability": "view",
      "type": "function"
    },
    {
      "inputs": [],
      "name": "owner",
      "outputs": [
        {
          "internalType": "address",
          "name": "",
          "type": "address"
        }
      ],
      "stateMutability": "view",
      "type": "function"
    },
    {
      "inputs": [
        {
          "internalType": "uint256",
          "name": "tokenId",
          "type": "uint256"
        }
      ],
      "name": "ownerOf",
      "outputs": [
        {
          "internalType": "address",
          "name": "",
          "type": "address"
        }
      ],
      "stateMutability": "view",
      "type": "function"
    },
    {
      "inputs": [],
      "name": "renounceOwnership",
      "outputs": [],
      "stateMutability": "nonpayable",
      "type": "function"
    },
    {
      "inputs": [
        {
          "internalType": "uint256",
          "name": "_tokenId",
          "type": "uint256"
        },
        {
          "internalType": "uint256",
          "name": "_salePrice",
          "type": "uint256"
        }
      ],
      "name": "royaltyInfo",
      "outputs": [
        {
          "internalType": "address",
          "name": "",
          "type": "address"
        },
        {
          "internalType": "uint256",
          "name": "",
          "type": "uint256"
        }
      ],
      "stateMutability": "view",
      "type": "function"
    },
    {
      "inputs": [
        {
          "internalType": "address",
          "name": "from",
          "type": "address"
        },
        {
          "internalType": "address",
          "name": "to",
          "type": "address"
        },
        {
          "internalType": "uint256",
          "name": "tokenId",
          "type": "uint256"
        }
      ],
      "name": "safeTransferFrom",
      "outputs": [],
      "stateMutability": "nonpayable",
      "type": "function"
    },
    {
      "inputs": [
        {
          "internalType": "address",
          "name": "from",
          "type": "address"
        },
        {
          "internalType": "address",
          "name": "to",
          "type": "address"
        },
        {
          "internalType": "uint256",
          "name": "tokenId",
          "type": "uint256"
        },
        {
          "internalType": "bytes",
          "name": "_data",
          "type": "bytes"
        }
      ],
      "name": "safeTransferFrom",
      "outputs": [],
      "stateMutability": "nonpayable",
      "type": "function"
    },
    {
      "inputs": [
        {
          "internalType": "address",
          "name": "operator",
          "type": "address"
        },
        {
          "internalType": "bool",
          "name": "approved",
          "type": "bool"
        }
      ],
      "name": "setApprovalForAll",
      "outputs": [],
      "stateMutability": "nonpayable",
      "type": "function"
    },
    {
      "inputs": [
        {
          "internalType": "address",
          "name": "_receiver",
          "type": "address"
        },
        {
          "internalType": "uint96",
          "name": "_royaltyFeesInBips",
          "type": "uint96"
        }
      ],
      "name": "setRoyaltyInfo",
      "outputs": [],
      "stateMutability": "nonpayable",
      "type": "function"
    },
    {
      "inputs": [
        {
          "internalType": "bytes4",
          "name": "interfaceId",
          "type": "bytes4"
        }
      ],
      "name": "supportsInterface",
      "outputs": [
        {
          "internalType": "bool",
          "name": "",
          "type": "bool"
        }
      ],
      "stateMutability": "view",
      "type": "function"
    },
    {
      "inputs": [],
      "name": "symbol",
      "outputs": [
        {
          "internalType": "string",
          "name": "",
          "type": "string"
        }
      ],
      "stateMutability": "view",
      "type": "function"
    },
    {
      "inputs": [
        {
          "internalType": "uint256",
          "name": "tokenId",
          "type": "uint256"
        }
      ],
      "name": "tokenURI",
      "outputs": [
        {
          "internalType": "string",
          "name": "",
          "type": "string"
        }
      ],
      "stateMutability": "view",
      "type": "function"
    },
    {
      "inputs": [
        {
          "internalType": "address",
          "name": "from",
          "type": "address"
        },
        {
          "internalType": "address",
          "name": "to",
          "type": "address"
        },
        {
          "internalType": "uint256",
          "name": "tokenId",
          "type": "uint256"
        }
      ],
      "name": "transferFrom",
      "outputs": [],
      "stateMutability": "nonpayable",
      "type": "function"
    },
    {
      "inputs": [
        {
          "internalType": "address",
          "name": "newOwner",
          "type": "address"
        }
      ],
      "name": "transferOwnership",
      "outputs": [],
      "stateMutability": "nonpayable",
      "type": "function"
    }
  ],
  "transactionHash": "0xd7620d22d90d3db84d6928b75a922bd478cb817d407b505a1297140906d1b164",
  "args": [
    "Hin",
    "Hin",
    "ipfs://QmPFmytBjskRqaFeBWq3Ub41sL9JMrGPAejTQcybJMMupP",
    3,
    "100000000000000000",
    110,
    250,
    "0xA257F6F39719805E35f3d88b3557fD32Cc28d8d2",
    "0x0A270fB0CEa1cCB113860B0Af6CbB98c1a0c04C8"
  ],
  "numDeployments": 1,
  "solcInputHash": "3b7b3c91fab86fee031b3f9ee6df4df4",
  "bytecode": "0x60806040526000600f553480156200001657600080fd5b506040516200491f3803806200491f83398181016040528101906200003c919062000638565b8888816000908051906020019062000056929190620004ae565b5080600190805190602001906200006f929190620004ae565b50505062000092620000866200016360201b60201c565b6200016b60201b60201c565b81600e600c6101000a81548173ffffffffffffffffffffffffffffffffffffffff021916908373ffffffffffffffffffffffffffffffffffffffff16021790555080601060006101000a81548173ffffffffffffffffffffffffffffffffffffffff021916908373ffffffffffffffffffffffffffffffffffffffff16021790555084600c8190555086600a908051906020019062000133929190620004ae565b5085600b8190555083600d819055506200015481846200023160201b60201c565b50505050505050505062000b57565b600033905090565b6000600960009054906101000a900473ffffffffffffffffffffffffffffffffffffffff16905081600960006101000a81548173ffffffffffffffffffffffffffffffffffffffff021916908373ffffffffffffffffffffffffffffffffffffffff1602179055508173ffffffffffffffffffffffffffffffffffffffff168173ffffffffffffffffffffffffffffffffffffffff167f8be0079c531659141344cd1fd0a4f28419497f9722a3daafe3b4186f6b6457e060405160405180910390a35050565b620002416200016360201b60201c565b73ffffffffffffffffffffffffffffffffffffffff1662000267620002d660201b60201c565b73ffffffffffffffffffffffffffffffffffffffff1614620002c0576040517f08c379a0000000000000000000000000000000000000000000000000000000008152600401620002b790620007e9565b60405180910390fd5b620002d282826200030060201b60201c565b5050565b6000600960009054906101000a900473ffffffffffffffffffffffffffffffffffffffff16905090565b62000310620004a460201b60201c565b6bffffffffffffffffffffffff16816bffffffffffffffffffffffff16111562000371576040517f08c379a000000000000000000000000000000000000000000000000000000000815260040162000368906200080b565b60405180910390fd5b600073ffffffffffffffffffffffffffffffffffffffff168273ffffffffffffffffffffffffffffffffffffffff161415620003e4576040517f08c379a0000000000000000000000000000000000000000000000000000000008152600401620003db906200082d565b60405180910390fd5b60405180604001604052808373ffffffffffffffffffffffffffffffffffffffff168152602001826bffffffffffffffffffffffff16815250600760008201518160000160006101000a81548173ffffffffffffffffffffffffffffffffffffffff021916908373ffffffffffffffffffffffffffffffffffffffff16021790555060208201518160000160146101000a8154816bffffffffffffffffffffffff02191690836bffffffffffffffffffffffff1602179055509050505050565b6000612710905090565b828054620004bc906200095f565b90600052602060002090601f016020900481019282620004e057600085556200052c565b82601f10620004fb57805160ff19168380011785556200052c565b828001600101855582156200052c579182015b828111156200052b5782518255916020019190600101906200050e565b5b5090506200053b91906200053f565b5090565b5b808211156200055a57600081600090555060010162000540565b5090565b6000620005756200056f8462000878565b6200084f565b90508281526020810184848401111562000594576200059362000a2e565b5b620005a184828562000929565b509392505050565b600081519050620005ba8162000aef565b92915050565b600081519050620005d18162000b09565b92915050565b600082601f830112620005ef57620005ee62000a29565b5b8151620006018482602086016200055e565b91505092915050565b6000815190506200061b8162000b23565b92915050565b600081519050620006328162000b3d565b92915050565b60008060008060008060008060006101208a8c0312156200065e576200065d62000a38565b5b60008a015167ffffffffffffffff8111156200067f576200067e62000a33565b5b6200068d8c828d01620005d7565b99505060208a015167ffffffffffffffff811115620006b157620006b062000a33565b5b620006bf8c828d01620005d7565b98505060408a015167ffffffffffffffff811115620006e357620006e262000a33565b5b620006f18c828d01620005d7565b9750506060620007048c828d016200060a565b9650506080620007178c828d016200060a565b95505060a06200072a8c828d016200060a565b94505060c06200073d8c828d0162000621565b93505060e0620007508c828d01620005a9565b925050610100620007648c828d01620005c0565b9150509295985092959850929598565b600062000783602083620008ae565b9150620007908262000a4e565b602082019050919050565b6000620007aa602a83620008ae565b9150620007b78262000a77565b604082019050919050565b6000620007d1601983620008ae565b9150620007de8262000ac6565b602082019050919050565b60006020820190508181036000830152620008048162000774565b9050919050565b6000602082019050818103600083015262000826816200079b565b9050919050565b600060208201905081810360008301526200084881620007c2565b9050919050565b60006200085b6200086e565b905062000869828262000995565b919050565b6000604051905090565b600067ffffffffffffffff821115620008965762000895620009fa565b5b620008a18262000a3d565b9050602081019050919050565b600082825260208201905092915050565b6000620008cc82620008e7565b9050919050565b6000620008e082620008e7565b9050919050565b600073ffffffffffffffffffffffffffffffffffffffff82169050919050565b6000819050919050565b60006bffffffffffffffffffffffff82169050919050565b60005b83811015620009495780820151818401526020810190506200092c565b8381111562000959576000848401525b50505050565b600060028204905060018216806200097857607f821691505b602082108114156200098f576200098e620009cb565b5b50919050565b620009a08262000a3d565b810181811067ffffffffffffffff82111715620009c257620009c1620009fa565b5b80604052505050565b7f4e487b7100000000000000000000000000000000000000000000000000000000600052602260045260246000fd5b7f4e487b7100000000000000000000000000000000000000000000000000000000600052604160045260246000fd5b600080fd5b600080fd5b600080fd5b600080fd5b6000601f19601f8301169050919050565b7f4f776e61626c653a2063616c6c6572206973206e6f7420746865206f776e6572600082015250565b7f455243323938313a20726f79616c7479206665652077696c6c2065786365656460008201527f2073616c65507269636500000000000000000000000000000000000000000000602082015250565b7f455243323938313a20696e76616c696420726563656976657200000000000000600082015250565b62000afa81620008bf565b811462000b0657600080fd5b50565b62000b1481620008d3565b811462000b2057600080fd5b50565b62000b2e8162000907565b811462000b3a57600080fd5b50565b62000b488162000911565b811462000b5457600080fd5b50565b613db88062000b676000396000f3fe6080604052600436106101405760003560e01c80636a627842116100b6578063b88d4fde1161006f578063b88d4fde1461044e578063c87b56dd14610477578063e76292e9146104b4578063e8a3d485146104df578063e985e9c51461050a578063f2fde38b1461054757610140565b80636a6278421461035f57806370a082311461037b578063715018a6146103b85780638da5cb5b146103cf57806395d89b41146103fa578063a22cb4651461042557610140565b806313966db51161010857806313966db51461023c57806323b872dd146102675780632a55205a146102905780633740ebb3146102ce57806342842e0e146102f95780636352211e1461032257610140565b806301ffc9a71461014557806302fa7c471461018257806306fdde03146101ab578063081812fc146101d6578063095ea7b314610213575b600080fd5b34801561015157600080fd5b5061016c600480360381019061016791906128b2565b610570565b6040516101799190612f04565b60405180910390f35b34801561018e57600080fd5b506101a960048036038101906101a49190612872565b610582565b005b3480156101b757600080fd5b506101c061060c565b6040516101cd9190612f1f565b60405180910390f35b3480156101e257600080fd5b506101fd60048036038101906101f8919061290c565b61069e565b60405161020a9190612e59565b60405180910390f35b34801561021f57600080fd5b5061023a60048036038101906102359190612832565b610723565b005b34801561024857600080fd5b5061025161083b565b60405161025e9190613221565b60405180910390f35b34801561027357600080fd5b5061028e6004803603810190610289919061271c565b610841565b005b34801561029c57600080fd5b506102b760048036038101906102b29190612939565b6108a1565b6040516102c5929190612edb565b60405180910390f35b3480156102da57600080fd5b506102e3610a8c565b6040516102f09190612e74565b60405180910390f35b34801561030557600080fd5b50610320600480360381019061031b919061271c565b610ab2565b005b34801561032e57600080fd5b506103496004803603810190610344919061290c565b610ad2565b6040516103569190612e59565b60405180910390f35b610379600480360381019061037491906126af565b610b84565b005b34801561038757600080fd5b506103a2600480360381019061039d91906126af565b610dda565b6040516103af9190613221565b60405180910390f35b3480156103c457600080fd5b506103cd610e92565b005b3480156103db57600080fd5b506103e4610f1a565b6040516103f19190612e59565b60405180910390f35b34801561040657600080fd5b5061040f610f44565b60405161041c9190612f1f565b60405180910390f35b34801561043157600080fd5b5061044c600480360381019061044791906127f2565b610fd6565b005b34801561045a57600080fd5b506104756004803603810190610470919061276f565b610fec565b005b34801561048357600080fd5b5061049e6004803603810190610499919061290c565b61104e565b6040516104ab9190612f1f565b60405180910390f35b3480156104c057600080fd5b506104c96111a0565b6040516104d69190613221565b60405180910390f35b3480156104eb57600080fd5b506104f46111c3565b6040516105019190612f1f565b60405180910390f35b34801561051657600080fd5b50610531600480360381019061052c91906126dc565b611251565b60405161053e9190612f04565b60405180910390f35b34801561055357600080fd5b5061056e600480360381019061056991906126af565b6112e5565b005b600061057b826113dd565b9050919050565b61058a611457565b73ffffffffffffffffffffffffffffffffffffffff166105a8610f1a565b73ffffffffffffffffffffffffffffffffffffffff16146105fe576040517f08c379a00000000000000000000000000000000000000000000000000000000081526004016105f590613121565b60405180910390fd5b610608828261145f565b5050565b60606000805461061b90613536565b80601f016020809104026020016040519081016040528092919081815260200182805461064790613536565b80156106945780601f1061066957610100808354040283529160200191610694565b820191906000526020600020905b81548152906001019060200180831161067757829003601f168201915b5050505050905090565b60006106a9826115f5565b6106e8576040517f08c379a00000000000000000000000000000000000000000000000000000000081526004016106df90613101565b60405180910390fd5b6004600083815260200190815260200160002060009054906101000a900473ffffffffffffffffffffffffffffffffffffffff169050919050565b600061072e82610ad2565b90508073ffffffffffffffffffffffffffffffffffffffff168373ffffffffffffffffffffffffffffffffffffffff16141561079f576040517f08c379a000000000000000000000000000000000000000000000000000000000815260040161079690613181565b60405180910390fd5b8073ffffffffffffffffffffffffffffffffffffffff166107be611457565b73ffffffffffffffffffffffffffffffffffffffff1614806107ed57506107ec816107e7611457565b611251565b5b61082c576040517f08c379a000000000000000000000000000000000000000000000000000000000815260040161082390613041565b60405180910390fd5b6108368383611661565b505050565b600c5481565b61085261084c611457565b8261171a565b610891576040517f08c379a0000000000000000000000000000000000000000000000000000000008152600401610888906131c1565b60405180910390fd5b61089c8383836117f8565b505050565b6000806000600860008681526020019081526020016000206040518060400160405290816000820160009054906101000a900473ffffffffffffffffffffffffffffffffffffffff1673ffffffffffffffffffffffffffffffffffffffff1673ffffffffffffffffffffffffffffffffffffffff1681526020016000820160149054906101000a90046bffffffffffffffffffffffff166bffffffffffffffffffffffff166bffffffffffffffffffffffff16815250509050600073ffffffffffffffffffffffffffffffffffffffff16816000015173ffffffffffffffffffffffffffffffffffffffff161415610a375760076040518060400160405290816000820160009054906101000a900473ffffffffffffffffffffffffffffffffffffffff1673ffffffffffffffffffffffffffffffffffffffff1673ffffffffffffffffffffffffffffffffffffffff1681526020016000820160149054906101000a90046bffffffffffffffffffffffff166bffffffffffffffffffffffff166bffffffffffffffffffffffff168152505090505b6000610a41611a5f565b6bffffffffffffffffffffffff1682602001516bffffffffffffffffffffffff1686610a6d91906133c8565b610a779190613397565b90508160000151819350935050509250929050565b601060009054906101000a900473ffffffffffffffffffffffffffffffffffffffff1681565b610acd83838360405180602001604052806000815250610fec565b505050565b6000806002600084815260200190815260200160002060009054906101000a900473ffffffffffffffffffffffffffffffffffffffff169050600073ffffffffffffffffffffffffffffffffffffffff168173ffffffffffffffffffffffffffffffffffffffff161415610b7b576040517f08c379a0000000000000000000000000000000000000000000000000000000008152600401610b7290613081565b60405180910390fd5b80915050919050565b6000610b8e611a69565b9050600b54811115610bd5576040517f08c379a0000000000000000000000000000000000000000000000000000000008152600401610bcc906131a1565b60405180910390fd5b610bdf8282611a7f565b610c7381600a8054610bf090613536565b80601f0160208091040260200160405190810160405280929190818152602001828054610c1c90613536565b8015610c695780601f10610c3e57610100808354040283529160200191610c69565b820191906000526020600020905b815481529060010190602001808311610c4c57829003601f168201915b5050505050611a9d565b610c7b611b11565b600c54341015610cc0576040517f08c379a0000000000000000000000000000000000000000000000000000000008152600401610cb790613161565b60405180910390fd5b6000601060009054906101000a900473ffffffffffffffffffffffffffffffffffffffff1673ffffffffffffffffffffffffffffffffffffffff16600c54604051610d0a90612e44565b60006040518083038185875af1925050503d8060008114610d47576040519150601f19603f3d011682016040523d82523d6000602084013e610d4c565b606091505b5050905080610d90576040517f08c379a0000000000000000000000000000000000000000000000000000000008152600401610d8790612f81565b60405180910390fd5b7f997115af5924f5e38964c6d65c804d4cb85129b65e62eb20a8ca6329dbe57e188284600a610dbd611457565b604051610dcd949392919061323c565b60405180910390a1505050565b60008073ffffffffffffffffffffffffffffffffffffffff168273ffffffffffffffffffffffffffffffffffffffff161415610e4b576040517f08c379a0000000000000000000000000000000000000000000000000000000008152600401610e4290613061565b60405180910390fd5b600360008373ffffffffffffffffffffffffffffffffffffffff1673ffffffffffffffffffffffffffffffffffffffff168152602001908152602001600020549050919050565b610e9a611457565b73ffffffffffffffffffffffffffffffffffffffff16610eb8610f1a565b73ffffffffffffffffffffffffffffffffffffffff1614610f0e576040517f08c379a0000000000000000000000000000000000000000000000000000000008152600401610f0590613121565b60405180910390fd5b610f186000611b2b565b565b6000600960009054906101000a900473ffffffffffffffffffffffffffffffffffffffff16905090565b606060018054610f5390613536565b80601f0160208091040260200160405190810160405280929190818152602001828054610f7f90613536565b8015610fcc5780601f10610fa157610100808354040283529160200191610fcc565b820191906000526020600020905b815481529060010190602001808311610faf57829003601f168201915b5050505050905090565b610fe8610fe1611457565b8383611bf1565b5050565b610ffd610ff7611457565b8361171a565b61103c576040517f08c379a0000000000000000000000000000000000000000000000000000000008152600401611033906131c1565b60405180910390fd5b61104884848484611d5e565b50505050565b6060611059826115f5565b611098576040517f08c379a000000000000000000000000000000000000000000000000000000000815260040161108f906130e1565b60405180910390fd5b60006006600084815260200190815260200160002080546110b890613536565b80601f01602080910402602001604051908101604052809291908181526020018280546110e490613536565b80156111315780601f1061110657610100808354040283529160200191611131565b820191906000526020600020905b81548152906001019060200180831161111457829003601f168201915b505050505090506000611142611dba565b905060008151141561115857819250505061119b565b60008251111561118d578082604051602001611175929190612e20565b6040516020818303038152906040529250505061119b565b61119684611dd1565b925050505b919050565b60006064600c54600d546111b491906133c8565b6111be9190613397565b905090565b600a80546111d090613536565b80601f01602080910402602001604051908101604052809291908181526020018280546111fc90613536565b80156112495780601f1061121e57610100808354040283529160200191611249565b820191906000526020600020905b81548152906001019060200180831161122c57829003601f168201915b505050505081565b6000600560008473ffffffffffffffffffffffffffffffffffffffff1673ffffffffffffffffffffffffffffffffffffffff16815260200190815260200160002060008373ffffffffffffffffffffffffffffffffffffffff1673ffffffffffffffffffffffffffffffffffffffff16815260200190815260200160002060009054906101000a900460ff16905092915050565b6112ed611457565b73ffffffffffffffffffffffffffffffffffffffff1661130b610f1a565b73ffffffffffffffffffffffffffffffffffffffff1614611361576040517f08c379a000000000000000000000000000000000000000000000000000000000815260040161135890613121565b60405180910390fd5b600073ffffffffffffffffffffffffffffffffffffffff168173ffffffffffffffffffffffffffffffffffffffff1614156113d1576040517f08c379a00000000000000000000000000000000000000000000000000000000081526004016113c890612f61565b60405180910390fd5b6113da81611b2b565b50565b60007f2a55205a000000000000000000000000000000000000000000000000000000007bffffffffffffffffffffffffffffffffffffffffffffffffffffffff1916827bffffffffffffffffffffffffffffffffffffffffffffffffffffffff19161480611450575061144f82611e78565b5b9050919050565b600033905090565b611467611a5f565b6bffffffffffffffffffffffff16816bffffffffffffffffffffffff1611156114c5576040517f08c379a00000000000000000000000000000000000000000000000000000000081526004016114bc906131e1565b60405180910390fd5b600073ffffffffffffffffffffffffffffffffffffffff168273ffffffffffffffffffffffffffffffffffffffff161415611535576040517f08c379a000000000000000000000000000000000000000000000000000000000815260040161152c90613201565b60405180910390fd5b60405180604001604052808373ffffffffffffffffffffffffffffffffffffffff168152602001826bffffffffffffffffffffffff16815250600760008201518160000160006101000a81548173ffffffffffffffffffffffffffffffffffffffff021916908373ffffffffffffffffffffffffffffffffffffffff16021790555060208201518160000160146101000a8154816bffffffffffffffffffffffff02191690836bffffffffffffffffffffffff1602179055509050505050565b60008073ffffffffffffffffffffffffffffffffffffffff166002600084815260200190815260200160002060009054906101000a900473ffffffffffffffffffffffffffffffffffffffff1673ffffffffffffffffffffffffffffffffffffffff1614159050919050565b816004600083815260200190815260200160002060006101000a81548173ffffffffffffffffffffffffffffffffffffffff021916908373ffffffffffffffffffffffffffffffffffffffff160217905550808273ffffffffffffffffffffffffffffffffffffffff166116d483610ad2565b73ffffffffffffffffffffffffffffffffffffffff167f8c5be1e5ebec7d5bd14f71427d1e84f3dd0314c0f7b2291e5b200ac8c7c3b92560405160405180910390a45050565b6000611725826115f5565b611764576040517f08c379a000000000000000000000000000000000000000000000000000000000815260040161175b90613021565b60405180910390fd5b600061176f83610ad2565b90508073ffffffffffffffffffffffffffffffffffffffff168473ffffffffffffffffffffffffffffffffffffffff1614806117de57508373ffffffffffffffffffffffffffffffffffffffff166117c68461069e565b73ffffffffffffffffffffffffffffffffffffffff16145b806117ef57506117ee8185611251565b5b91505092915050565b8273ffffffffffffffffffffffffffffffffffffffff1661181882610ad2565b73ffffffffffffffffffffffffffffffffffffffff161461186e576040517f08c379a000000000000000000000000000000000000000000000000000000000815260040161186590612fa1565b60405180910390fd5b600073ffffffffffffffffffffffffffffffffffffffff168273ffffffffffffffffffffffffffffffffffffffff1614156118de576040517f08c379a00000000000000000000000000000000000000000000000000000000081526004016118d590612fe1565b60405180910390fd5b6118e9838383611f5a565b6118f4600082611661565b6001600360008573ffffffffffffffffffffffffffffffffffffffff1673ffffffffffffffffffffffffffffffffffffffff16815260200190815260200160002060008282546119449190613422565b925050819055506001600360008473ffffffffffffffffffffffffffffffffffffffff1673ffffffffffffffffffffffffffffffffffffffff168152602001908152602001600020600082825461199b9190613341565b92505081905550816002600083815260200190815260200160002060006101000a81548173ffffffffffffffffffffffffffffffffffffffff021916908373ffffffffffffffffffffffffffffffffffffffff160217905550808273ffffffffffffffffffffffffffffffffffffffff168473ffffffffffffffffffffffffffffffffffffffff167fddf252ad1be2c89b69c2b068fc378daa952ba7f163c4a11628f55a4df523b3ef60405160405180910390a4611a5a838383611f5f565b505050565b6000612710905090565b60006001600f54611a7a9190613341565b905090565b611a99828260405180602001604052806000815250611f64565b5050565b611aa6826115f5565b611ae5576040517f08c379a0000000000000000000000000000000000000000000000000000000008152600401611adc906130a1565b60405180910390fd5b80600660008481526020019081526020016000209080519060200190611b0c92919061251e565b505050565b600f6000815480929190611b2490613599565b9190505550565b6000600960009054906101000a900473ffffffffffffffffffffffffffffffffffffffff16905081600960006101000a81548173ffffffffffffffffffffffffffffffffffffffff021916908373ffffffffffffffffffffffffffffffffffffffff1602179055508173ffffffffffffffffffffffffffffffffffffffff168173ffffffffffffffffffffffffffffffffffffffff167f8be0079c531659141344cd1fd0a4f28419497f9722a3daafe3b4186f6b6457e060405160405180910390a35050565b8173ffffffffffffffffffffffffffffffffffffffff168373ffffffffffffffffffffffffffffffffffffffff161415611c60576040517f08c379a0000000000000000000000000000000000000000000000000000000008152600401611c5790613001565b60405180910390fd5b80600560008573ffffffffffffffffffffffffffffffffffffffff1673ffffffffffffffffffffffffffffffffffffffff16815260200190815260200160002060008473ffffffffffffffffffffffffffffffffffffffff1673ffffffffffffffffffffffffffffffffffffffff16815260200190815260200160002060006101000a81548160ff0219169083151502179055508173ffffffffffffffffffffffffffffffffffffffff168373ffffffffffffffffffffffffffffffffffffffff167f17307eab39ab6107e8899845ad3d59bd9653f200f220920489ca2b5937696c3183604051611d519190612f04565b60405180910390a3505050565b611d698484846117f8565b611d7584848484611fbf565b611db4576040517f08c379a0000000000000000000000000000000000000000000000000000000008152600401611dab90612f41565b60405180910390fd5b50505050565b606060405180602001604052806000815250905090565b6060611ddc826115f5565b611e1b576040517f08c379a0000000000000000000000000000000000000000000000000000000008152600401611e1290613141565b60405180910390fd5b6000611e25611dba565b90506000815111611e455760405180602001604052806000815250611e70565b80611e4f84612156565b604051602001611e60929190612e20565b6040516020818303038152906040525b915050919050565b60007f80ac58cd000000000000000000000000000000000000000000000000000000007bffffffffffffffffffffffffffffffffffffffffffffffffffffffff1916827bffffffffffffffffffffffffffffffffffffffffffffffffffffffff19161480611f4357507f5b5e139f000000000000000000000000000000000000000000000000000000007bffffffffffffffffffffffffffffffffffffffffffffffffffffffff1916827bffffffffffffffffffffffffffffffffffffffffffffffffffffffff1916145b80611f535750611f52826122b7565b5b9050919050565b505050565b505050565b611f6e8383612321565b611f7b6000848484611fbf565b611fba576040517f08c379a0000000000000000000000000000000000000000000000000000000008152600401611fb190612f41565b60405180910390fd5b505050565b6000611fe08473ffffffffffffffffffffffffffffffffffffffff166124fb565b15612149578373ffffffffffffffffffffffffffffffffffffffff1663150b7a02612009611457565b8786866040518563ffffffff1660e01b815260040161202b9493929190612e8f565b602060405180830381600087803b15801561204557600080fd5b505af192505050801561207657506040513d601f19601f8201168201806040525081019061207391906128df565b60015b6120f9573d80600081146120a6576040519150601f19603f3d011682016040523d82523d6000602084013e6120ab565b606091505b506000815114156120f1576040517f08c379a00000000000000000000000000000000000000000000000000000000081526004016120e890612f41565b60405180910390fd5b805181602001fd5b63150b7a0260e01b7bffffffffffffffffffffffffffffffffffffffffffffffffffffffff1916817bffffffffffffffffffffffffffffffffffffffffffffffffffffffff19161491505061214e565b600190505b949350505050565b6060600082141561219e576040518060400160405280600181526020017f300000000000000000000000000000000000000000000000000000000000000081525090506122b2565b600082905060005b600082146121d05780806121b990613599565b915050600a826121c99190613397565b91506121a6565b60008167ffffffffffffffff8111156121ec576121eb6136cf565b5b6040519080825280601f01601f19166020018201604052801561221e5781602001600182028036833780820191505090505b5090505b600085146122ab576001826122379190613422565b9150600a8561224691906135e2565b60306122529190613341565b60f81b818381518110612268576122676136a0565b5b60200101907effffffffffffffffffffffffffffffffffffffffffffffffffffffffffffff1916908160001a905350600a856122a49190613397565b9450612222565b8093505050505b919050565b60007f01ffc9a7000000000000000000000000000000000000000000000000000000007bffffffffffffffffffffffffffffffffffffffffffffffffffffffff1916827bffffffffffffffffffffffffffffffffffffffffffffffffffffffff1916149050919050565b600073ffffffffffffffffffffffffffffffffffffffff168273ffffffffffffffffffffffffffffffffffffffff161415612391576040517f08c379a0000000000000000000000000000000000000000000000000000000008152600401612388906130c1565b60405180910390fd5b61239a816115f5565b156123da576040517f08c379a00000000000000000000000000000000000000000000000000000000081526004016123d190612fc1565b60405180910390fd5b6123e660008383611f5a565b6001600360008473ffffffffffffffffffffffffffffffffffffffff1673ffffffffffffffffffffffffffffffffffffffff16815260200190815260200160002060008282546124369190613341565b92505081905550816002600083815260200190815260200160002060006101000a81548173ffffffffffffffffffffffffffffffffffffffff021916908373ffffffffffffffffffffffffffffffffffffffff160217905550808273ffffffffffffffffffffffffffffffffffffffff16600073ffffffffffffffffffffffffffffffffffffffff167fddf252ad1be2c89b69c2b068fc378daa952ba7f163c4a11628f55a4df523b3ef60405160405180910390a46124f760008383611f5f565b5050565b6000808273ffffffffffffffffffffffffffffffffffffffff163b119050919050565b82805461252a90613536565b90600052602060002090601f01602090048101928261254c5760008555612593565b82601f1061256557805160ff1916838001178555612593565b82800160010185558215612593579182015b82811115612592578251825591602001919060010190612577565b5b5090506125a091906125a4565b5090565b5b808211156125bd5760008160009055506001016125a5565b5090565b60006125d46125cf846132ad565b613288565b9050828152602081018484840111156125f0576125ef613703565b5b6125fb8482856134f4565b509392505050565b60008135905061261281613d0f565b92915050565b60008135905061262781613d26565b92915050565b60008135905061263c81613d3d565b92915050565b60008151905061265181613d3d565b92915050565b600082601f83011261266c5761266b6136fe565b5b813561267c8482602086016125c1565b91505092915050565b60008135905061269481613d54565b92915050565b6000813590506126a981613d6b565b92915050565b6000602082840312156126c5576126c461370d565b5b60006126d384828501612603565b91505092915050565b600080604083850312156126f3576126f261370d565b5b600061270185828601612603565b925050602061271285828601612603565b9150509250929050565b6000806000606084860312156127355761273461370d565b5b600061274386828701612603565b935050602061275486828701612603565b925050604061276586828701612685565b9150509250925092565b600080600080608085870312156127895761278861370d565b5b600061279787828801612603565b94505060206127a887828801612603565b93505060406127b987828801612685565b925050606085013567ffffffffffffffff8111156127da576127d9613708565b5b6127e687828801612657565b91505092959194509250565b600080604083850312156128095761280861370d565b5b600061281785828601612603565b925050602061282885828601612618565b9150509250929050565b600080604083850312156128495761284861370d565b5b600061285785828601612603565b925050602061286885828601612685565b9150509250929050565b600080604083850312156128895761288861370d565b5b600061289785828601612603565b92505060206128a88582860161269a565b9150509250929050565b6000602082840312156128c8576128c761370d565b5b60006128d68482850161262d565b91505092915050565b6000602082840312156128f5576128f461370d565b5b600061290384828501612642565b91505092915050565b6000602082840312156129225761292161370d565b5b600061293084828501612685565b91505092915050565b600080604083850312156129505761294f61370d565b5b600061295e85828601612685565b925050602061296f85828601612685565b9150509250929050565b61298281613468565b82525050565b61299181613456565b82525050565b6129a08161347a565b82525050565b60006129b1826132f3565b6129bb8185613309565b93506129cb818560208601613503565b6129d481613712565b840191505092915050565b60006129ea826132fe565b6129f48185613325565b9350612a04818560208601613503565b612a0d81613712565b840191505092915050565b6000612a23826132fe565b612a2d8185613336565b9350612a3d818560208601613503565b80840191505092915050565b60008154612a5681613536565b612a608186613325565b94506001821660008114612a7b5760018114612a8d57612ac0565b60ff1983168652602086019350612ac0565b612a96856132de565b60005b83811015612ab857815481890152600182019150602081019050612a99565b808801955050505b50505092915050565b6000612ad6603283613325565b9150612ae182613723565b604082019050919050565b6000612af9602683613325565b9150612b0482613772565b604082019050919050565b6000612b1c600f83613325565b9150612b27826137c1565b602082019050919050565b6000612b3f602583613325565b9150612b4a826137ea565b604082019050919050565b6000612b62601c83613325565b9150612b6d82613839565b602082019050919050565b6000612b85602483613325565b9150612b9082613862565b604082019050919050565b6000612ba8601983613325565b9150612bb3826138b1565b602082019050919050565b6000612bcb602c83613325565b9150612bd6826138da565b604082019050919050565b6000612bee603883613325565b9150612bf982613929565b604082019050919050565b6000612c11602a83613325565b9150612c1c82613978565b604082019050919050565b6000612c34602983613325565b9150612c3f826139c7565b604082019050919050565b6000612c57602e83613325565b9150612c6282613a16565b604082019050919050565b6000612c7a602083613325565b9150612c8582613a65565b602082019050919050565b6000612c9d603183613325565b9150612ca882613a8e565b604082019050919050565b6000612cc0602c83613325565b9150612ccb82613add565b604082019050919050565b6000612ce3602083613325565b9150612cee82613b2c565b602082019050919050565b6000612d06602f83613325565b9150612d1182613b55565b604082019050919050565b6000612d29601f83613325565b9150612d3482613ba4565b602082019050919050565b6000612d4c602183613325565b9150612d5782613bcd565b604082019050919050565b6000612d6f601f83613325565b9150612d7a82613c1c565b602082019050919050565b6000612d9260008361331a565b9150612d9d82613c45565b600082019050919050565b6000612db5603183613325565b9150612dc082613c48565b604082019050919050565b6000612dd8602a83613325565b9150612de382613c97565b604082019050919050565b6000612dfb601983613325565b9150612e0682613ce6565b602082019050919050565b612e1a816134d2565b82525050565b6000612e2c8285612a18565b9150612e388284612a18565b91508190509392505050565b6000612e4f82612d85565b9150819050919050565b6000602082019050612e6e6000830184612988565b92915050565b6000602082019050612e896000830184612979565b92915050565b6000608082019050612ea46000830187612988565b612eb16020830186612988565b612ebe6040830185612e11565b8181036060830152612ed081846129a6565b905095945050505050565b6000604082019050612ef06000830185612988565b612efd6020830184612e11565b9392505050565b6000602082019050612f196000830184612997565b92915050565b60006020820190508181036000830152612f3981846129df565b905092915050565b60006020820190508181036000830152612f5a81612ac9565b9050919050565b60006020820190508181036000830152612f7a81612aec565b9050919050565b60006020820190508181036000830152612f9a81612b0f565b9050919050565b60006020820190508181036000830152612fba81612b32565b9050919050565b60006020820190508181036000830152612fda81612b55565b9050919050565b60006020820190508181036000830152612ffa81612b78565b9050919050565b6000602082019050818103600083015261301a81612b9b565b9050919050565b6000602082019050818103600083015261303a81612bbe565b9050919050565b6000602082019050818103600083015261305a81612be1565b9050919050565b6000602082019050818103600083015261307a81612c04565b9050919050565b6000602082019050818103600083015261309a81612c27565b9050919050565b600060208201905081810360008301526130ba81612c4a565b9050919050565b600060208201905081810360008301526130da81612c6d565b9050919050565b600060208201905081810360008301526130fa81612c90565b9050919050565b6000602082019050818103600083015261311a81612cb3565b9050919050565b6000602082019050818103600083015261313a81612cd6565b9050919050565b6000602082019050818103600083015261315a81612cf9565b9050919050565b6000602082019050818103600083015261317a81612d1c565b9050919050565b6000602082019050818103600083015261319a81612d3f565b9050919050565b600060208201905081810360008301526131ba81612d62565b9050919050565b600060208201905081810360008301526131da81612da8565b9050919050565b600060208201905081810360008301526131fa81612dcb565b9050919050565b6000602082019050818103600083015261321a81612dee565b9050919050565b60006020820190506132366000830184612e11565b92915050565b60006080820190506132516000830187612e11565b61325e6020830186612988565b81810360408301526132708185612a49565b905061327f6060830184612988565b95945050505050565b60006132926132a3565b905061329e8282613568565b919050565b6000604051905090565b600067ffffffffffffffff8211156132c8576132c76136cf565b5b6132d182613712565b9050602081019050919050565b60008190508160005260206000209050919050565b600081519050919050565b600081519050919050565b600082825260208201905092915050565b600081905092915050565b600082825260208201905092915050565b600081905092915050565b600061334c826134d2565b9150613357836134d2565b9250827fffffffffffffffffffffffffffffffffffffffffffffffffffffffffffffffff0382111561338c5761338b613613565b5b828201905092915050565b60006133a2826134d2565b91506133ad836134d2565b9250826133bd576133bc613642565b5b828204905092915050565b60006133d3826134d2565b91506133de836134d2565b9250817fffffffffffffffffffffffffffffffffffffffffffffffffffffffffffffffff048311821515161561341757613416613613565b5b828202905092915050565b600061342d826134d2565b9150613438836134d2565b92508282101561344b5761344a613613565b5b828203905092915050565b6000613461826134b2565b9050919050565b6000613473826134b2565b9050919050565b60008115159050919050565b60007fffffffff0000000000000000000000000000000000000000000000000000000082169050919050565b600073ffffffffffffffffffffffffffffffffffffffff82169050919050565b6000819050919050565b60006bffffffffffffffffffffffff82169050919050565b82818337600083830152505050565b60005b83811015613521578082015181840152602081019050613506565b83811115613530576000848401525b50505050565b6000600282049050600182168061354e57607f821691505b6020821081141561356257613561613671565b5b50919050565b61357182613712565b810181811067ffffffffffffffff821117156135905761358f6136cf565b5b80604052505050565b60006135a4826134d2565b91507fffffffffffffffffffffffffffffffffffffffffffffffffffffffffffffffff8214156135d7576135d6613613565b5b600182019050919050565b60006135ed826134d2565b91506135f8836134d2565b92508261360857613607613642565b5b828206905092915050565b7f4e487b7100000000000000000000000000000000000000000000000000000000600052601160045260246000fd5b7f4e487b7100000000000000000000000000000000000000000000000000000000600052601260045260246000fd5b7f4e487b7100000000000000000000000000000000000000000000000000000000600052602260045260246000fd5b7f4e487b7100000000000000000000000000000000000000000000000000000000600052603260045260246000fd5b7f4e487b7100000000000000000000000000000000000000000000000000000000600052604160045260246000fd5b600080fd5b600080fd5b600080fd5b600080fd5b6000601f19601f8301169050919050565b7f4552433732313a207472616e7366657220746f206e6f6e20455243373231526560008201527f63656976657220696d706c656d656e7465720000000000000000000000000000602082015250565b7f4f776e61626c653a206e6577206f776e657220697320746865207a65726f206160008201527f6464726573730000000000000000000000000000000000000000000000000000602082015250565b7f5472616e73666572206661696c65640000000000000000000000000000000000600082015250565b7f4552433732313a207472616e736665722066726f6d20696e636f72726563742060008201527f6f776e6572000000000000000000000000000000000000000000000000000000602082015250565b7f4552433732313a20746f6b656e20616c7265616479206d696e74656400000000600082015250565b7f4552433732313a207472616e7366657220746f20746865207a65726f2061646460008201527f7265737300000000000000000000000000000000000000000000000000000000602082015250565b7f4552433732313a20617070726f766520746f2063616c6c657200000000000000600082015250565b7f4552433732313a206f70657261746f7220717565727920666f72206e6f6e657860008201527f697374656e7420746f6b656e0000000000000000000000000000000000000000602082015250565b7f4552433732313a20617070726f76652063616c6c6572206973206e6f74206f7760008201527f6e6572206e6f7220617070726f76656420666f7220616c6c0000000000000000602082015250565b7f4552433732313a2062616c616e636520717565727920666f7220746865207a6560008201527f726f206164647265737300000000000000000000000000000000000000000000602082015250565b7f4552433732313a206f776e657220717565727920666f72206e6f6e657869737460008201527f656e7420746f6b656e0000000000000000000000000000000000000000000000602082015250565b7f45524337323155524953746f726167653a2055524920736574206f66206e6f6e60008201527f6578697374656e7420746f6b656e000000000000000000000000000000000000602082015250565b7f4552433732313a206d696e7420746f20746865207a65726f2061646472657373600082015250565b7f45524337323155524953746f726167653a2055524920717565727920666f722060008201527f6e6f6e6578697374656e7420746f6b656e000000000000000000000000000000602082015250565b7f4552433732313a20617070726f76656420717565727920666f72206e6f6e657860008201527f697374656e7420746f6b656e0000000000000000000000000000000000000000602082015250565b7f4f776e61626c653a2063616c6c6572206973206e6f7420746865206f776e6572600082015250565b7f4552433732314d657461646174613a2055524920717565727920666f72206e6f60008201527f6e6578697374656e7420746f6b656e0000000000000000000000000000000000602082015250565b7f496e73756666696369656e742066756e647320666f72206d696e74696e672e00600082015250565b7f4552433732313a20617070726f76616c20746f2063757272656e74206f776e6560008201527f7200000000000000000000000000000000000000000000000000000000000000602082015250565b7f5265616368206d617869756d20737570706c7920636170206f66204e46542e00600082015250565b50565b7f4552433732313a207472616e736665722063616c6c6572206973206e6f74206f60008201527f776e6572206e6f7220617070726f766564000000000000000000000000000000602082015250565b7f455243323938313a20726f79616c7479206665652077696c6c2065786365656460008201527f2073616c65507269636500000000000000000000000000000000000000000000602082015250565b7f455243323938313a20696e76616c696420726563656976657200000000000000600082015250565b613d1881613456565b8114613d2357600080fd5b50565b613d2f8161347a565b8114613d3a57600080fd5b50565b613d4681613486565b8114613d5157600080fd5b50565b613d5d816134d2565b8114613d6857600080fd5b50565b613d74816134dc565b8114613d7f57600080fd5b5056fea264697066735822122078b398d4c84946b97b33c85d8a0993412895a87a3d01fabf1032147d89b8e5ec64736f6c63430008070033",
  "devdoc": {
    "events": {
      "Minted(uint256,address,string,address)": {
        "details": "Events of the contract"
      }
    },
    "kind": "dev",
    "methods": {
      "approve(address,uint256)": {
        "details": "See {IERC721-approve}."
      },
      "balanceOf(address)": {
        "details": "See {IERC721-balanceOf}."
      },
      "getApproved(uint256)": {
        "details": "See {IERC721-getApproved}."
      },
      "isApprovedForAll(address,address)": {
        "details": "See {IERC721-isApprovedForAll}."
      },
      "mint(address)": {
        "details": "Mints a token to an address with a tokenURI.",
        "params": {
          "_to": "address of the future owner of the token"
        }
      },
      "name()": {
        "details": "See {IERC721Metadata-name}."
      },
      "owner()": {
        "details": "Returns the address of the current owner."
      },
      "ownerOf(uint256)": {
        "details": "See {IERC721-ownerOf}."
      },
      "renounceOwnership()": {
        "details": "Leaves the contract without owner. It will not be possible to call `onlyOwner` functions anymore. Can only be called by the current owner. NOTE: Renouncing ownership will leave the contract without an owner, thereby removing any functionality that is only available to the owner."
      },
      "royaltyInfo(uint256,uint256)": {
        "details": "Returns how much royalty is owed and to whom, based on a sale price that may be denominated in any unit of exchange. The royalty amount is denominated and should be payed in that same unit of exchange."
      },
      "safeTransferFrom(address,address,uint256)": {
        "details": "See {IERC721-safeTransferFrom}."
      },
      "safeTransferFrom(address,address,uint256,bytes)": {
        "details": "See {IERC721-safeTransferFrom}."
      },
      "setApprovalForAll(address,bool)": {
        "details": "See {IERC721-setApprovalForAll}."
      },
      "symbol()": {
        "details": "See {IERC721Metadata-symbol}."
      },
      "tokenURI(uint256)": {
        "details": "See {IERC721Metadata-tokenURI}."
      },
      "transferFrom(address,address,uint256)": {
        "details": "See {IERC721-transferFrom}."
      },
      "transferOwnership(address)": {
        "details": "Transfers ownership of the contract to a new account (`newOwner`). Can only be called by the current owner."
      }
    },
    "version": 1
  },
  "userdoc": {
    "kind": "user",
    "methods": {
      "constructor": {
        "notice": "Contract constructor"
      },
      "feeReceipient()": {
        "notice": "Receipient of mint fee and royalty fee"
      },
      "getPriceCelling()": {
        "notice": "Implement price celling - checking logic built in NFTmarketplace List-item and update-listing"
      },
      "supportsInterface(bytes4)": {
        "notice": "Implement RoyaltyInfo by Reference https://gist.github.com/shobhitic/50518080ca7cb29072d72730873ff54a"
      }
    },
    "version": 1
  },
  "storageLayout": {
    "storage": [
      {
        "astId": 192,
        "contract": "contracts/EventContract.sol:EventContract",
        "label": "_name",
        "offset": 0,
        "slot": "0",
        "type": "t_string_storage"
      },
      {
        "astId": 194,
        "contract": "contracts/EventContract.sol:EventContract",
        "label": "_symbol",
        "offset": 0,
        "slot": "1",
        "type": "t_string_storage"
      },
      {
        "astId": 198,
        "contract": "contracts/EventContract.sol:EventContract",
        "label": "_owners",
        "offset": 0,
        "slot": "2",
        "type": "t_mapping(t_uint256,t_address)"
      },
      {
        "astId": 202,
        "contract": "contracts/EventContract.sol:EventContract",
        "label": "_balances",
        "offset": 0,
        "slot": "3",
        "type": "t_mapping(t_address,t_uint256)"
      },
      {
        "astId": 206,
        "contract": "contracts/EventContract.sol:EventContract",
        "label": "_tokenApprovals",
        "offset": 0,
        "slot": "4",
        "type": "t_mapping(t_uint256,t_address)"
      },
      {
        "astId": 212,
        "contract": "contracts/EventContract.sol:EventContract",
        "label": "_operatorApprovals",
        "offset": 0,
        "slot": "5",
        "type": "t_mapping(t_address,t_mapping(t_address,t_bool))"
      },
      {
        "astId": 1179,
        "contract": "contracts/EventContract.sol:EventContract",
        "label": "_tokenURIs",
        "offset": 0,
        "slot": "6",
        "type": "t_mapping(t_uint256,t_string_storage)"
      },
      {
        "astId": 1338,
        "contract": "contracts/EventContract.sol:EventContract",
        "label": "_defaultRoyaltyInfo",
        "offset": 0,
        "slot": "7",
        "type": "t_struct(RoyaltyInfo)1335_storage"
      },
      {
        "astId": 1343,
        "contract": "contracts/EventContract.sol:EventContract",
        "label": "_tokenRoyaltyInfo",
        "offset": 0,
        "slot": "8",
        "type": "t_mapping(t_uint256,t_struct(RoyaltyInfo)1335_storage)"
      },
      {
        "astId": 7,
        "contract": "contracts/EventContract.sol:EventContract",
        "label": "_owner",
        "offset": 0,
        "slot": "9",
        "type": "t_address"
      },
      {
        "astId": 2099,
        "contract": "contracts/EventContract.sol:EventContract",
        "label": "contractURI",
        "offset": 0,
        "slot": "10",
        "type": "t_string_storage"
      },
      {
        "astId": 2101,
        "contract": "contracts/EventContract.sol:EventContract",
        "label": "supplyCap",
        "offset": 0,
        "slot": "11",
        "type": "t_uint256"
      },
      {
        "astId": 2103,
        "contract": "contracts/EventContract.sol:EventContract",
        "label": "mintFee",
        "offset": 0,
        "slot": "12",
        "type": "t_uint256"
      },
      {
        "astId": 2105,
        "contract": "contracts/EventContract.sol:EventContract",
        "label": "priceCellingFraction",
        "offset": 0,
        "slot": "13",
        "type": "t_uint256"
      },
      {
        "astId": 2107,
        "contract": "contracts/EventContract.sol:EventContract",
        "label": "royaltyFeesInBips",
        "offset": 0,
        "slot": "14",
        "type": "t_uint96"
      },
      {
        "astId": 2109,
        "contract": "contracts/EventContract.sol:EventContract",
        "label": "marketplace",
        "offset": 12,
        "slot": "14",
        "type": "t_address"
      },
      {
        "astId": 2112,
        "contract": "contracts/EventContract.sol:EventContract",
        "label": "_currentTokenId",
        "offset": 0,
        "slot": "15",
        "type": "t_uint256"
      },
      {
        "astId": 2115,
        "contract": "contracts/EventContract.sol:EventContract",
        "label": "feeReceipient",
        "offset": 0,
        "slot": "16",
        "type": "t_address_payable"
      }
    ],
    "types": {
      "t_address": {
        "encoding": "inplace",
        "label": "address",
        "numberOfBytes": "20"
      },
      "t_address_payable": {
        "encoding": "inplace",
        "label": "address payable",
        "numberOfBytes": "20"
      },
      "t_bool": {
        "encoding": "inplace",
        "label": "bool",
        "numberOfBytes": "1"
      },
      "t_mapping(t_address,t_bool)": {
        "encoding": "mapping",
        "key": "t_address",
        "label": "mapping(address => bool)",
        "numberOfBytes": "32",
        "value": "t_bool"
      },
      "t_mapping(t_address,t_mapping(t_address,t_bool))": {
        "encoding": "mapping",
        "key": "t_address",
        "label": "mapping(address => mapping(address => bool))",
        "numberOfBytes": "32",
        "value": "t_mapping(t_address,t_bool)"
      },
      "t_mapping(t_address,t_uint256)": {
        "encoding": "mapping",
        "key": "t_address",
        "label": "mapping(address => uint256)",
        "numberOfBytes": "32",
        "value": "t_uint256"
      },
      "t_mapping(t_uint256,t_address)": {
        "encoding": "mapping",
        "key": "t_uint256",
        "label": "mapping(uint256 => address)",
        "numberOfBytes": "32",
        "value": "t_address"
      },
      "t_mapping(t_uint256,t_string_storage)": {
        "encoding": "mapping",
        "key": "t_uint256",
        "label": "mapping(uint256 => string)",
        "numberOfBytes": "32",
        "value": "t_string_storage"
      },
      "t_mapping(t_uint256,t_struct(RoyaltyInfo)1335_storage)": {
        "encoding": "mapping",
        "key": "t_uint256",
        "label": "mapping(uint256 => struct ERC2981.RoyaltyInfo)",
        "numberOfBytes": "32",
        "value": "t_struct(RoyaltyInfo)1335_storage"
      },
      "t_string_storage": {
        "encoding": "bytes",
        "label": "string",
        "numberOfBytes": "32"
      },
      "t_struct(RoyaltyInfo)1335_storage": {
        "encoding": "inplace",
        "label": "struct ERC2981.RoyaltyInfo",
        "members": [
          {
            "astId": 1332,
            "contract": "contracts/EventContract.sol:EventContract",
            "label": "receiver",
            "offset": 0,
            "slot": "0",
            "type": "t_address"
          },
          {
            "astId": 1334,
            "contract": "contracts/EventContract.sol:EventContract",
            "label": "royaltyFraction",
            "offset": 20,
            "slot": "0",
            "type": "t_uint96"
          }
        ],
        "numberOfBytes": "32"
      },
      "t_uint256": {
        "encoding": "inplace",
        "label": "uint256",
        "numberOfBytes": "32"
      },
      "t_uint96": {
        "encoding": "inplace",
        "label": "uint96",
        "numberOfBytes": "12"
      }
    }
  }
}